:100000000C942A000C9434000C9434000C943400AA
:100010000C9434000C9434000C9434000C94340090
:100020000C9434000C9434000C9434000C94340080
:100030000C9434000C9434000C9434000C94340070
:100040000C9434000C9434000C9434000C94340060
:100050000C94340011241FBECFE5D8E0DEBFCDBF25
:100060000E9446000C9452000C94000023E023BF31
:1000700033E808C032BF28B7216028BFA89508B66A
:1000800000FEFDCF0197B0F713BE0895D09AD99A1C
:100090008BE090E00E943600D9988BE090E00E94BF
:0800A0003600F5CFF894FFCF04
:00000001FF
