S010000070726F6A656374332E73726563EA
S11300000C942A000C943F000C943F000C943F0085
S11300100C943F000C943F000C943F000C943F0060
S11300200C943F000C943F000C943F000C943F0050
S11300300C943F000C943F000C943F000C943F0040
S11300400C943F000C943F000C943F000C943F0030
S11300500C943F0011241FBECFE5D8E0DEBFCDBF16
S113006010E0A0E6B0E0E2E0F7E002C005900D92F7
S1130070A43FB107D9F70E94A5010C947F030C9407
S1130080000022E023BF36EF019748F032BF28B7C3
S1130090216028BFA89508B600FEFDCFF5CF13BE9A
S11300A0089523B330E002C0359527958A95E2F789
S11300B020FD0DC025B330E002C0359527956A9523
S11300C0E2F781E090E020FF04C080E0089580E042
S11300D090E0089524E030E041E050E0281739072B
S11300E069F0E4B3BA01022E01C0660F0A94EAF77C
S11300F06095E623E4BB75B3762375BB2F5F3F4F52
S11301002830310559F70895EF92FF920F931F930A
S1130110CF93DF9300E010E0EE24E394F12C24B3BA
S1130120C701002E01C0880F0A94EAF7982F909512
S1130130922394BB95B3982B95BBC4E0D0E024B331
S1130140C7010C2E01C0880F0A94EAF7282B24BBA0
S113015095B38095892385BBCE010E946A00BE01B8
S1130160C8010E945100892B31F08C2F8350000F5D
S1130170000F800F0AC02196C830D10501F70F5F28
S11301801F4F0430110559F680E0DF91CF911F9184
S11301900F91FF90EF900895662311F0C09A01C06B
S11301A0C098C19882BB8FEF81BBC29A0000000047
S11301B00000C2980895C098C19A11BA90B3C29A27
S11301C000000000000011BA90B3C29897FDF3CF6D
S11301D00C94CC00B89AB99ABA9A80E190E00E9443
S11301E0410060E080E30E94CC0085E090E00E9442
S11301F0410060E080E30E94CC0081E090E00E9436
S1130200410060E08CE30E94DB0060E08CE00E942F
S1130210DB0060E086E00E94DB0060E081E00C949B
S1130220DB0060E081E00C94DB00CF93C62F98E202
S1130230899FC00D112460E082E00E94DB00CC2382
S113024031F060E084E10E94DB00C150F8CFCF912F
S11302500895CF93DF93EC018991882321F061E025
S11302600E94DB00F9CFDF91CF9108958F929F9286
S1130270AF92BF92CF92DF92EF92FF92CF93DF9330
S11302806A017B01D09A682F70E0660F771F882778
S113029077FD8095982F0E9490024B015C01C70165
S11302A0B601660F771F881F991F0E948E0227E1EF
S11302B037EB41ED58E30E941C039B01AC01C501DF
S11302C0B4010E94F5010E945D02EB01A12CB12C46
S11302D0AC16BD0664F4D89AC6010E944100D898B1
S11302E0C6010E9441008FEFA81AB80AF1CFDF912E
S11302F0CF91FF90EF90DF90CF90BF90AF909F9001
S11303008F900895EF92FF920F931F93CF93DF93F3
S11303107B01EC0100E010E00E151F057CF4488120
S113032059816A817B818C810E94360184E690E048
S11303300E9441000F5F1F4F2596EECFDF91CF91B2
S11303401F910F91FF90EF900895CF93DF93CDB756
S1130350DEB7C357D1090FB6F894DEBF0FBECDBFC9
S11303600E94EA000E9411018DE2E0E6F0E0DE0165
S1130370A95BBF4F01900D928A95E1F786E4EDE801
S1130380F0E0DE01119601900D928A95E1F760E0AC
S113039080E00E94150183ED90E00E9429010E94F3
S11303A08400813069F460E00E94150189ED90E0D9
S11303B00E94290169E070E0CE01895B9F4F10C063
S11303C00E948400823019F760E081E00E941501E8
S11303D083EE90E00E9429016EE070E0CE01019668
S11303E00E9482010E941101D2CF0CD0EBC0E3D055
S11303F040F0DAD030F021F45F3F19F0CCC0511155
S113040015C1CFC0F0D098F39923C9F35523B1F3A4
S1130410951B550BBB27AA2762177307840738F06F
S11304209F5F5F4F220F331F441FAA1FA9F333D0CE
S11304300E2E3AF0E0E830D091505040E695001C82
S1130440CAF729D0FE2F27D0660F771F881FBB1F3E
S1130450261737074807AB07B0E809F0BB0B802D18
S1130460BF01FF2793585F4F2AF09E3F510568F064
S113047092C0DCC05F3FECF3983EDCF38695779541
S11304806795B795F7959F5FC9F7880F911D969566
S1130490879597F90895E1E0660F771F881FBB1FC2
S11304A0621773078407BA0720F0621B730B840B6F
S11304B0BA0BEE1F88F7E095089504D06894B11143
S11304C0B5C0089598D088F09F5790F0B92F992718
S11304D0B751A0F0D1F0660F771F881F991F1AF04B
S11304E0BA95C9F712C0B13081F09FD0B1E0089538
S11304F09CC0672F782F8827B85F39F0B93FCCF3B9
S1130500869577956795B395D9F73EF49095809540
S1130510709561957F4F8F4F9F4F0895E89409C060
S113052097FB3EF490958095709561957F4F8F4F22
S11305309F4F9923A9F0F92F96E9BB279395F69538
S1130540879577956795B795F111F8CFFAF4BB0FB6
S113055011F460FF1BC06F5F7F4F8F4F9F4F16C01A
S1130560882311F096E911C0772321F09EE8872FA4
S1130570762F05C0662371F096E8862F70E060E060
S11305802AF09A95660F771F881FDAF7880F9695D9
S1130590879597F9089597F99F6780E870E060E080
S11305A008959FEF80EC089500240A941616170608
S11305B018060906089500240A9412161306140650
S11305C005060895092E0394000C11F4882352F0B3
S11305D0BB0F40F4BF2B11F460FF04C06F5F7F4F6B
S11305E08F4F9F4F089557FD9058440F551F59F052
S11305F05F3F71F04795880F97FB991F61F09F3F0C
S113060079F087950895121613061406551FF2CF34
S11306104695F1DF08C0161617061806991FF1CF84
S113062086957105610508940895E894BB276627AB
S11306307727CB0197F908950BD0C4CFB5DF28F005
S1130640BADF18F0952309F0A6CFABCF1124EECF73
S1130650CADFA0F3959FD1F3950F50E0551F629F19
S1130660F001729FBB27F00DB11D639FAA27F00D07
S1130670B11DAA1F649F6627B00DA11D661F829F2E
S11306802227B00DA11D621F739FB00DA11D621F13
S1130690839FA00D611D221F749F3327A00D611D30
S11306A0231F849F600D211D822F762F6A2F112412
S11306B09F5750408AF0E1F088234AF0EE0FFF1F65
S11306C0BB1F661F771F881F91505040A9F79E3F9C
S11306D0510570F060CFAACF5F3FECF3983EDCF396
S11306E0869577956795B795F795E7959F5FC1F7D9
S11306F0FE2B880F911D9695879597F90895F89488
S1050700FFCF25
S11307024C0000000150000000014C0000000150A8
S1130712000000014C0000000165000000015500CA
S1130722000001600000000172000000026000008D
S113073200026000000002400000000240000000CD
S113074202390000000239000000024000000004E7
S1130752480000000248000000024C000000024C65
S11307620000000255000000025500000002600073
S1130772000004536F6E673A0046757220456C6937
S11307827365005477696E6B6C65205477696E6B80
S10707926C6500008E
S9030000FC
